:1018000012C02CC02BC02AC029C028C027C026C0A7
:1018100025C024C023C022C021C020C01FC01EC0BC
:101820001DC01CC01BC011241FBECFE5D4E0DEBF0D
:10183000CDBF10E0A0E6B0E0E8EDFBE102C005900E
:101840000D92A636B107D9F720E0A6E6B0E001C0B8
:101850001D92A63AB207E1F74FD0BCC1D1CFCF92CB
:10186000DF92EF92FF920F931F93CF93DF936B0161
:101870007C016FB7F894E199FECFC60123E0F60131
:1018800020935700E89507B600FCFDCF8A01005C65
:101890001F4FDA0131E0FC01E41BF50BAF014250B0
:1018A00051092C911296FD01E40FF51FED012197CE
:1018B000888190E0982F8827820F911D0C0130932A
:1018C0005700E89511240A171B0759F785E0F60120
:1018D00080935700E89507B600FCFDCF81E1809327
:1018E0005700E8956FBFDF91CF911F910F91FF9047
:1018F000EF90DF90CF900895CF93DF93CDB7DEB711
:101900002E970FB6F894DEBF0FBECDBF85E0E0E6A0
:10191000F0E0DE01119601900D928A95E1F785E0E5
:10192000E0E6F0E0DE01169601900D928A95E1F76F
:1019300088E38B8742D1C1988B8580648B8741E097
:10194000BE01655F7F4F80E0FDD045E0BE016F5F67
:101950007F4F8AE0F7D045E0BE016A5F7F4F80E1AC
:10196000F1D081E08C8741E0BE01645F7F4F81E16F
:10197000E9D041E0BE01645F7F4F82E0C8D08C8532
:1019800081608C8741E0BE01645F7F4F82E0DAD0E6
:101990001D8641E0BE01635F7F4F80E0B8D08D853A
:1019A00082608D8741E0BE01635F7F4F80E0CAD0D7
:1019B0008FE99FE00197F1F700C000001D8641E02C
:1019C000BE01635F7F4F80E0A2D08D8581608D87EF
:1019D00041E0BE01635F7F4F80E0B4D0C19AEDE08B
:1019E000F1E03197F1F700C0000083B7856083BF55
:1019F00080E284BB95B3892785BBB12C00E0C12C64
:101A0000A12C10E0E12C6894DD24D6F8FE2C68941B
:101A1000992491F808B600FE0CC088B7816088BF91
:101A2000A394F7E9FA1528F4A8D0E0E0F0E00995CE
:101A3000FFCF113009F44FC020F0123009F44FC02D
:101A4000E9CFA0D0882331F3C29881E690E0BDD0E1
:101A50008FEF90E0BAD0C82EC29ADE8641E0BE0178
:101A6000625F7F4F87E06ED0AE2C11E0D3CFC2987B
:101A700081E690E0AAD08FEF90E0A7D0EB2DF0E0C8
:101A8000EA59FF4F8083C29ADE8641E0BE01625F61
:101A90007F4F87E057D0B394FFE3FB15D8F40F5F77
:101AA000602F70E061507109002476956795079466
:101AB000769567950794762F602D072E000C880B7E
:101AC000990B46E650E0CBDE0C1103C0BF2C192D5C
:101AD00001C0BF2CAF2C56D08111C9CF9BCF41E0A4
:101AE000BE01655F7F4F80E012D08B858F7B8B8737
:101AF00041E0BE01655F7F4F80E024D03ED081E1B0
:101B000080935700E895E0E0F0E00995FFCFFF9261
:101B10000F931F93CF93DF938B01F42EC29855D070
:101B2000FF2049F0E8010F0D111D8FEF4ED0899372
:101B3000C017D107D1F7C29ADF91CF911F910F91B2
:101B4000FF900895FF920F931F93CF93DF938B0124
:101B5000F42EC298806239D0FF2041F0E8010F0DC9
:101B6000111D899132D0C017D107D9F7C29ADF91E0
:101B7000CF911F910F91FF900895C29882EE25D0CA
:101B8000C29A0895CF93DF931F92CDB7DEB7198223
:101B900041E0BE016F5F7F4F87E0B9DF8981282F69
:101BA0002695277030E02630310514F0817001C091
:101BB00081E00F90DF91CF91089587B38E6287BB4C
:101BC000BC98C29A83E58DB908958FB9779BFECFF3
:081BD0008FB10895F894FFCFD6
:061BD80021212121210062
:0400000300001800E1
:00000001FF
