:1000000012C019C018C017C016C015C014C013C044
:1000100012C011C010C00FC00EC00DC00CC00BC06C
:100020000AC009C008C011241FBECFE5D4E0DEBF5E
:10003000CDBF02D04DC0E4CFA59AAD986894BB2443
:10004000B2F8E12CC0E20F2EF4E6FF2EF02DD0E046
:100050000F2EF0E9CF2EF02DDD24D39400E018E12F
:100060004B2D5E2D18C085B38C2785BB8FEC97E098
:100070000197F1F700C0000021503109A1F79FEF6F
:10008000E9E6F8E19150E040F040E1F700C00000FF
:100090004150510919F02F2D3D2FE5CF2C2D3D2D2D
:1000A00085B38C2785BB8FEC97E00197F1F700C0F3
:1000B000000021503109A1F79FEFE9E6F8E19150E6
:1000C000E040F040E1F700C00000F8010995C8CF1A
:0400D000F894FFCFD2
:00000001FF
